:042000000220543234
:03200B000227A108
:202010000000E2FBEAF2802C0000E0FBEAF08024E6B50202EBF62200E2B50202EBF22200B6
:20203000E0B50202EBF02230F6E0A88220F5D3EAC6F582228B822230F6E6A88220F5D980C6
:01205000CFC0
:0320AD00022051BD
:032051000220B0BA
:2020B00012236D1226537463C0E0743AC0E07480C0E012302F15811581158112212580FB84
:2020D0007F00C007122825AD82D007BD0D02801BBF0100500790000BEDF07F017E008D8242
:2020F0008E83C007122806D00780D7EF240BF582E43400F583E4F07480C0E0743AC0E0743B
:2021100080C0E012302F15811581158190000B75F000022D697483C0E0743AC0E07480C02B
:20213000E012302F158115811581749FC0E0743AC0E07480C0E012302F1581158115817440
:20215000B5C0E0743AC0E07480C0E012302F15811581158174C7C0E0743AC0E07480C0E048
:2021700012302F15811581158174D7C0E0743AC0E07480C0E012302F15811581158174EBBD
:20219000C0E0743AC0E07480C0E012302F15811581158174FFC0E0743AC0E07480C0E01273
:2021B000302F1581158115817416C0E0743BC0E07480C0E012302F15811581158112283341
:2021D000AE82AF83BEFF05BFFF0280F1900007E0FCA3E04C600BC007C006122663D006D01F
:2021F000078E828F83C007C006122806D006D007BE6308BF000512261280C2BE7020BF00A6
:202210001D742BC0E0743BC0E07480C0E012302F1581158115811228251224E2809FBE7375
:2022300005BF000280028077743DC0E0743BC0E07480C0E012302F1581158115817D00C0AB
:2022500005122825AB82D005BB0D028021BD3F00500DED240DF582E43400F583EBF00D7CBB
:20227000008B828C83C005122806D00580D190000D75F000C005122582D005ED240DF5821D
:20229000E43400F583E4F07480C0E0743AC0E07480C0E012302F1581158115810221CDBE73
:2022B0006748BF00457451C0E0743BC0E07480C0E012302F1581158115811220D0AC82C0F0
:2022D000047457C0E0743BC0E07480C0E012302F1581158115811220D0AB82D00490004E88
:2022F000ECF08B821224090221CDBE6821BF001E9000E77401F07480C0E0743AC0E07480E0
:20231000C0E012302F1581158115810221CDBE7222BF001F9000E7E4F0D28C7480C0E07409
:202330003AC0E07480C0E012302F1581158115810221CDBE7A05BF000280030221CD9000FB
:2023500009E4F0A3F07480C0E0743AC0E07480C0E012302F1581158115810221CD90C350C1
:20237000122626C296C2959080007430F0901770122626C296C2959080007430F09003E859
:20239000122626C296C2959080007430F01223DFC296C2959080007438F01223DFC296C2DF
:2023B000959080007408F01223DFC296C295908000740CF01223DFC296C29590800074066C
:2023D000F01223DFC296C2959080007401F022C296D295908000E020E7F922E58290004D8E
:2023F000F01223DFC296C2959003E812262690004DE02480908000F022E58290004FF0E0A8
:20241000FF703290004EE0FEFD9000DFE0FBA3E0ED2BF582C007C0061223EBD006D0078F0D
:20243000047D00900001ECF0EDA3F0FD900003EEF0EDA3F022BF013290004EE0FEFD9000D3
:20245000E1E0FBA3E0ED2BF582C007C0061223EBD006D0078F047D00900001ECF0EDA3F047
:20247000FD900003EEF0EDA3F022BF023290004EE0FEFD9000E3E0FBA3E0ED2BF582C00769
:20249000C0061223EBD006D0078F047D00900001ECF0EDA3F0FD900003EEF0EDA3F022BFCD
:2024B000032F90004EE0FEFD9000E5E0FBA3E0ED2BF582C007C0061223EBD006D0077D00E8
:2024D000900001EFF0EDA3F0FF900003EEF0EFA3F022E582900050F01223DFD296C295904E
:2024F0000050E0908000F0900003E0FEA3E0FFC3EE940FEF94004060900001E0FEA3E04EF2
:20251000700B90004EE4F0758201022409900001E0FEA3E0FFBE010EBF000B90004EE4F01D
:20253000758202022409900001E0FEA3E0FFBE020EBF000B90004EE4F0758203022409906F
:202550000001E0FEA3E0FFBE0327BF002490004EE4F0758200022409900001E0FEA3E090E5
:202570000003E0FDA3E090004EED04F08E8202240922AFF0AE83E582900051F0EEA3F0EF50
:20259000A3F0900051E0FDA3E0FEA3E0FF8D828E838FF0123A2BAE82AF83900051E0FBA300
:2025B000E0FCA3E0FD79007A00C003C004C00589008A05C3E89EED9FD005D004D003504176
:2025D000C006C007E92BF8EA3CFE8D0788828E838FF0123A43F582C007C006C005C004C024
:2025F00003C002C0011224E2D001D002D003D004D005D006D00709B900010AD007D0068067
:20261000A8221223DFC296C2959003E81226269080007401F022AF83E582900054F0EFA3AE
:20263000F0900054E0FEA3E0FF1EBEFF011F900054EEF0EFA3F0EE4F70EF900054EEF0EFCA
:20265000A3F022438901758C4C758A00D2A9D2AFD28C22900001E0FEA3E0FF900056EEF06B
:20267000EFA3F0900003E0FEA3E0FF900058EEF0EFA3F0900009E0FEA3E0FF9000837458B5
:20269000F07402A3F08E828F83122BE8AE82AF83900009E0FCA3E0FD90009F7458F0740232
:2026B000A3F08C828D83C007C006122EC4AC82AD83900083740AF0E4A3F08C828D83C0058F
:2026D000C004122BE8AA82AB83D004D00590009F740AF0E4A3F08C828D83C003C002122E07
:2026F000C4AC82AD83D002D00390004E7409F0758203C005C004C003C002122409D002D0CF
:2027100003D004D005D0068E0175F00AE9842430F582C006C005C004C003C0021224E2D035
:2027300002D003D004D005D006D00775F00AEE84AEF074302EF582C005C004C003C0021276
:2027500024E275823A1224E2D0028A0775F00AEF842430F582C0021224E2D002D00375F026
:202770000AEA84AAF074302AF5821224E275822E1224E2D004D00574302CF5821224E29005
:202790000058E0FF900056E090004EF08F82022409C0E0C082C083C007C006C0D075D00097
:2027B0009000E7E06004C28C803F9000E7E07039900007E0FEA3E04E601C900007E4F0A371
:2027D000F0900009E0FEA3E0FF90000974012EF0E43FA3F080099000077401F0E4A3F0B270
:1627F00091758C4C758A00D28CD0D0D006D007D083D082D0E032C4
:203A63000A0D204C61623420506172742032204C43442050726F6772616D0A0D000A0D00A7
:203A83000A0D202D2D2D2D2D2D20436F6D6D616E6473202D2D2D2D2D2D0A0D000A0D2063AD
:203AA300203A20436C6561722053637265656E0A0D000A0D2070203A207075744368617213
:203AC300200A0D000A0D2073203A207075745374720A0D000A0D2067203A20476F20746F0E
:203AE30020782C20790A0D000A0D2068203A2053746F702074696D65720A0D000A0D20728F
:203B0300203A20526573746172742054696D65720A0D000A0D207A203A20526573657420BD
:203B230054696D65720A0D000A0D20496E707574206120636861723A20000A0D20496E702C
:1A3B43007574206120737472696E673A20000A0D20783A000A0D20793A001A
:093B6800000040001000500000B4
:20280600AF83E582900063F0EFA3F010990280FB900063E0FEA3E0FF8E998E828F832210C0
:1F282600980280FBAE997F008E828F83221098028009AE997F008E828F83229000012284
:20284500438901758A00758C4CD28C22439002439001D291D29022AF83E582900065F0EFDD
:20286500A3F0900065E0FEA3E0FF7D00000DEDFB3395E0FCC3EE9BEF9C50F122900067A282
:20288500917290E433F0900067E0B40100E433F0900067E0F582223091FD3090FAD291D2E9
:2028A500909000EAE0FE7F008E828F8312285CC291C29022D291D2909000EAE0FE7F008E03
:2028C500828F8312285CC291C29022C291D2909000EAE0FE7F008E828F8312285CD2912239
:2028E500E582900068F09000697480F0900068E0FF900069E05F6004D2918002C291D2909A
:202905009000EAE0FD7E008D828E83C00712285CC2909000EAE0FD7E008D828E8312285C83
:20292500D007900069E075F00284F0E070C3D2909000EAE0FE7F008E828F8312285C900073
:20294500E8A291E433F0C2909000EAE0FE7F008E828F8302285CE58290006AF090006BE44F
:20296500F090006C7480F0D29030910B90006CE0FF90006BE04FF09000EAE0FE7F008E8278
:202985008F8312285CC2909000EAE0FE7F008E828F8312285C90006CE075F00284F0E070A2
:2029A500C6D2909000EAE0FE7F008E828F8312285C90006AE0FFBF0104D2918002C29190F6
:2029C50000EAE0FE7F008E828F8312285CC2909000EAE0FE7F008E828F8312285C90006B17
:2029E500E0F58222E58290006EF01228B99000E9E0F5821228E59000E8E0FFBF01031228CE
:202A0500D09000E8E0FFBF010280DF90006DE0F5821228E590006EE0F5821228E50228D088
:202A2500E58290006FF01228B99000E9E0F5821228E59000E8E0FFBF01031228D09000E8BD
:202A4500E0FFBF010280DF90006FE0F5821228E51228B99000E9E0FF0F8F821228E575827B
:202A65000112295BAF82C0071228D0D0078F8222AF82AE83ADF0FC900074EFF0EEA3F0ED62
:202A8500A3F0ECA3F0900074E0FCA3E0FDA3E0FEA3E0FF90008A74E8F07403A3F0E4A3F0D5
:202AA500A3F08C828D838EF0EF122C75AC82AD83AEF0FF90008A74E8F07403A3F0E4A3F05E
:202AC500A3F08C828D838EF0EF122C75AC82AD839000A4ECF0EDA3F090000C122F6FAE82B6
:202AE500AF83E4FDFC74032EFEE43FFFE43DFDE43CFC900070E0F8A3E0F9A3E0FAA3E0FB74
:202B050090008AE8F0E9A3F0EAA3F0EBA3F08E828F838DF0EC122C75AC829000EAECF02263
:202B2500E582900078F0E09000E9F02222E58290007DF0E0FF90007AE0FCA3E0FDA3E0FE7A
:202B4500900079E0FB7A00C3EB9A403CC003EA2CF8E43DF98E03888289838BF0123A43F8BA
:202B650090006DEFF08882C007C006C005C004C003C0021229E9D002D003D004D005D00687
:202B8500D0070A0FD00380BF22E582900082F0E0FF90007FE0FCA3E0FDA3E0FE90007EE0EA
:202BA500FB7A00C3EB9A403AC003EA2CF508E43DF5098E0A8F82C007C006C005C004C00263
:202BC500122A25AB82D002D004D005D006D007850882850983850AF0EB122E890A0FD003FB
:032BE50080C1228A
:033B710000000051
:202BE800AF83E582900085F0EFA3F0900087E4F0A3F0900083E0FEA3E0FF7D10900085E03A
:202C0800FBA3E0FC900089235401F0EB2BFBEC33FC900085EBF0ECA3F0900087E0FBA3E0A1
:202C2800FCEB2BFBEC33FC900087EBF0ECA3F0900089E06008900087E043E001F090008770
:202C4800E0FBA3E0FCC3EB9EEC9F4013900087EBC39EF0EC9FA3F0900085E043E001F0DD91
:0D2C68009B900085E0FEA3E08E82F58322A4
:202C7500AF82AE83ADF0FC90008EEFF0EEA3F0EDA3F0ECA3F0900092E4F0A3F0A3F0A3F018
:202C950090008AE0FCA3E0FDA3E0FEA3E0FF7B20C00390008EE0F8A3E0F9A3E0FAA3E0FBDB
:202CB500900096235401F0E828F8E933F9EA33FAEB33FB90008EE8F0E9A3F0EAA3F0EBA3A7
:202CD500F0900092E0F8A3E0F9A3E0FAA3E0FBE828F8E933F9EA33FAEB33FB900092E8F037
:202CF500E9A3F0EAA3F0EBA3F0D003900096E06008900092E043E001F0900092E0F517A340
:202D1500E0F518A3E0F519A3E0F51AC3E5179CE5189DE5199EE51A9F401F900092E517C31F
:202D35009CF0E5189DA3F0E5199EA3F0E51A9FA3F090008EE043E001F01BEB6003022CA517
:142D550090008EE0FCA3E0FDA3E0FEA3E08C828D838EF0222E
:06208300E478FFF6D8FD31
:202D6900AFF0AE83E582900097F0EEA3F0EFA3F090009AE4F0A3F0900097E0FDA3E0FEA340
:202D8900E0FF8D828E838FF0123A43FCBC20028003BC09120DBD00010E900097EDF0EEA37B
:202DA900F0EFA3F080DC900097EDF0EEA3F0EFA3F08D828E838FF0123A43FCE4BC2D010439
:202DC900F50BBC2D028003BC2B0E90009774012DF0E43EA3F0EFA3F0900097E0FDA3E0FE12
:202DE900A3E0FF8D828E838FF0123A43FCBC30009200405FEC24C69200405890009AE0FBFC
:202E0900A3E0FC90009DEBF0ECA3F090000AC007C006C005122EA4AB82AC83D005D006D0FC
:202E2900078D828E838FF0123A43FAA3AD82AE83900097EDF0EEA3F0EFA3F08A017A00E962
:202E490024D0F9EA34FFFA90009AE92BF0EA3CA3F08090900097EDF0EEA3F0EFA3F0E50B77
:202E6900601190009AE0FEA3E0FFC3E49EFEE49FFF800890009AE0FEA3E0FF8E828F832233
:20206100790CE94400601B7A01903B6878DF75A000E493F2A308B8000205A0D9F4DAF27597
:02208100A0FFBE
:1B2E890020F71130F6138883A88220F509F6A8837583002280FEF280F5F02248
:202EA400AA83AB828BF090009DE0A4F8A9F08AF0E0A429F98BF0A3E0A429F5838882222246
:202EC400AF83E5829000A1F0EFA3F09000A3E4F09000A1E0FEA3E0FF7D0090009FE0FBA3F0
:202EE400E0FC2354017036EB2BFBEC33FC90009FEBF0ECA3F090009FE0FBA3E0FCC3EE9B4A
:202F0400EF9C5011ECC313CB13CBFC90009FEBF0ECA3F080080D9000A3EDF080BD9000A3BC
:202F2400E0FF9000A1E0FDA3E0FE90009FE0FBA3E0FCC3ED9BEE9C400B9000A1EDC39BF00A
:202F4400EE9CA3F090009FE0FDA3E0C313CD13CDFE90009FEDF0EEA3F08F061FEE70C3904E
:0B2F640000A1E0FEA3E08E82F58322B6
:202F6F00AF83E5829000A6F0EFA3F09000A6E0FEA3E0FF30E709C3E49EFCE49FFD80048E78
:202F8F00048F059000A4E0FEA3E0FF33E433FB6009C3E49EF9E49FFA80048E018F02900059
:202FAF0083E9F0EAA3F08C828D83C003122BE8AE82AF83D0039000A6E0A3E033E4336B6040
:122FCF000CC3E49EFCE49FFD8C828D83228E828F83229F
:202089007800E84400600A790175A000E4F309D8FC78DEE84400600C7901900001E4F0A376
:0420A900D8FCD9FA8C
:202FE100C0168581167E008E83122806D01622AFF0AE83E5829000A9F0EEA3F0EFA3F09014
:2030010000A9E0FDA3E0FEA3E0FF9000A8E0FC9000BDE4F0A3F0A3F09000C0EDF0EEA3F01D
:20302100EFA3F09000C3ECF0902FE1023133C016E581F51624FBFF9000BDE4F0A3F0A3F02C
:20304100E51624FBF89000C0E6F008E6A3F008E6A3F09000C3EFF0902FE1123133D01622E5
:20306100E5829000B9F0E0FF9000AFE0C0E0A3E0C0E0A3E0C0E012307C800D9000ADE0C0A3
:20308100E0A3E0C0E08F82221581158115819000B7E02401F0A3E03400F022E5829000BA81
:2030A100F0E02430FF24C6500D74072FFF9000ACE060034307208F82023061E5829000BBBD
:2030C100F0E0FFC4540FF582C00712309CD00753070F8F8202309CE5829000BCF09000B2D9
:2030E100E0FCA3E0FDA3E0FEA3E0FF9000B6E0FB9000BCE0FA7920EB2BF517EF23540145C2
:2031010017FBEC2CFCED33FDEE33FEEF33FFC3EB9A4007EBC39AFB43040119E970D9900036
:20312100B2ECF0EDA3F0EEA3F0EFA3F09000B6EBF022AF83E5829000C4F0EFA3F09000C487
:20314100E0FEA3E0FF9000ADEEF0EFA3F09000BDE0FDA3E0FEA3E0FF9000AFEDF0EEA3F0A7
:20316100EFA3F09000B7E4F0A3F09000C0E0FDA3E0FEA3E0FF8D828E838FF0123A43FC9034
:2031810000C074012DF0E43EA3F0EFA3F0EC7003023A1FBC25028003023A179000C6E4F008
:2031A1009000C7F09000C8F09000C9F09000CAF09000CBF09000CCF09000CDF09000CFF0B9
:2031C1009000D0F0A3F09000D214F0A3F09000C0E0FDA3E0FEA3E0FF8D828E838FF0123AF7
:2031E10043FBA3AD82AE839000C0EDF0EEA3F0EFA3F09000D6EBF0BB25088B821230610282
:20320100316BBB300050030232CCEB24C650030232CC9000D2E0F50CA3E0F50D74FFB50CAF
:2032210063B50D60C005C006C0079000D0E0FAA3E0FF90009DEAF0EFA3F090000AC005C052
:2032410003122EA4AE82AF83D003D0058B057A00ED2EFEEA3FFFEE24D0FEEF34FFFF9000A0
:20326100D0EEF0EFA3F0D007D006D0059000D0E0F5F0A3E045F060030231D99000C7740183
:20328100F00231D9C005C006C00790009DE50CF0E50DA3F090000AC006C005C003122EA480
:2032A100AA82AF83D003D005D0067E00EB2AFAEE3FFFEA24D0FAEF34FFFF9000D2EAF0EF54
:2032C100A3F0D007D006D0050231D99000D6E0FBBB2E2FC005C006C0079000D2E0FAA3E062
:2032E100FFBAFF05BFFF028009D007D006D0050231D9D007D006D0059000D2E4F0A3F002EC
:2033010031D9BB61004014EB2485400F9000D674DF5BF09000AC7401F080059000ACE4F015
:203321009000D6E0FBBB20028075BB2B028067BB2D028059BB4202806FBB4302807CBB44FE
:20334100030235C3BB46030235E9BB48030231D9BB49030235C3BB4A030231D9BB4C02809B
:2033610050BB4F030235D1BB5003023531BB53028077BB54030231D9BB55030235D9BB5816
:20338100030235E1BB5A030231D90235F19000C67401F00231D99000C87401F00231D990A5
:2033A10000C97401F00231D99000CB7401F00231D99000CC7401F00231D99000CBE0600E90
:2033C1009000C3E014F9F09000D6E7F0800F9000C3E024FEFFF08F019000D6E7F09000D679
:2033E100E0F5821230610236009000C3E024FDFFF08F01870509870609870719199000B29A
:20340100EDF0EEA3F0EFA3F08D828E838FF0123A2B85820C85830D9000D2E0FAA3E0FDBA17
:20342100FF0DBDFF0A9000D2E50CF0E50DA3F09000C6E0704B9000D0E0FAA3E0FDC3E50C92
:203441009AE50D9D503A9000D0EAC3950CF0ED950DA3F09000D0E0FAA3E0FD8A068D071A00
:20346100BAFF011DEE4F6010758220C005C002123061D002D00580E39000D0EAF0EDA3F0C2
:203481009000D2E0F50FA3E0F5109000B2E0FAA3E0FDA3E0FF8A828D838FF0123A43F50E12
:2034A100603CC3E4950F74808510F063F08095F0502C150F74FFB50F021510850E821230FE
:2034C100619000B2E0FAA3E0FDA3E0FF0ABA00010D9000B2EAF0EDA3F0EFA3F080AC9000C0
:2034E100C6E070030236009000D0E0FEA3E0FFC3E50C9EE50D9F40030236009000D0EEC34B
:20350100950CF0EF950DA3F09000D0E0FEA3E0FF8E028F051EBEFF011FEA4D70030235F83D
:20352100758220C007C006123061D006D00780E09000C3E024FDFDF08D0187110987120924
:20354100871319199000B2E511F0E512A3F0E513A3F09000B4E0FDBD800040089000D674E1
:2035610043F08020BD600040089000D67450F08013BD400040089000D67449F080069000F7
:20358100D67458F09000D6E0FDF582C00512306175823A1230617582301230617582781257
:2035A1003061D005BD4902800EBD500280099000B3E0F5821230BC9000B2E0F5821230BC47
:2035C100803D9000CA7401F09000CF740AF0802F9000CF7408F080279000CF740AF0801F14
:2035E1009000CF7410F080179000CD7401F0800F8B8212306180089000D0EEF0EFA3F09087
:2036010000CDE060719000C3E024FCFFF08F0187030987050987060987071919199000B280
:20362100EBF0EDA3F0EEA3F0EFA3F09000B2745DF0743BA3F07480A3F09000B2E0F511A394
:20364100E0F512A3E0F51374012511FAE43512FBAF139000B2EAF0EBA3F0EFA3F085118236
:203661008512838513F0123A43FF700302316B8F8212306180C39000CFE0F50FE070030279
:20368100316B9000CBE060479000C3E014F9F087067D007B007A009000B2EEF0EDA3F0EBF1
:2036A100A3F0EAA3F09000CAE060030237469000B2E0FAA3E0A3E0A3E07B007D007E009032
:2036C10000B2EAF0EBA3F0EDA3F0EEA3F080769000CCE060289000C3E024FCFEF08E0187CD
:2036E100020987030987050987061919199000B2EAF0EBA3F0EDA3F0EEA3F080489000C308
:20370100E024FEFEF08E01870509870619EE3395E0FBFA9000B2EDF0EEA3F0EBA3F0EAA3B8
:20372100F09000CAE0701E9000B2E0FAA3E0FBA3E0A3E07D007E009000B2EAF0EBA3F0EDAE
:20374100A3F0EEA3F09000CAE0603D9000B2E0A3E0A3E0A3E030E72B9000B2E0FAA3E0FBF6
:20376100A3E0FDA3E0FEC3E49AFAE49BFBE49DFDE49EFE9000B2EAF0EBA3F0EDA3F0EEA3E9
:20378100F080059000CAE4F09000CE7401F07514DC751500E4F50CF50D9000B6E4F0850F3E
:2037A100821230D89000CEE070339000B6E0C454F0F5119000B6E0C4540F4511F511851415
:2037C10082851583E0FFE5114207851482851583EFF0151474FFB514021515800B9000B6B2
:2037E100E0851482851583F0050CE4B50C02050D9000CEE0B40100E433F09000B2E0FAA33D
:20380100E0FBA3E0FEA3E0FFEA4B4E4F708B9000DDE514F0E515A3F09000D4E50CF0E50DE2
:20382100A3F09000D0E0F5F0A3E045F070099000D07401F0E4A3F09000C7E0FFE0703E900E
:2038410000C6E070389000D0E0FDA3E0FE9000D4E0FB0B7A00C3EB9DEA9E5019758220C084
:2038610007C006C005123061D005D006D0071DBDFF011E80D89000D0EDF0EEA3F09000CA28
:20388100E0602075822DC007123061D0079000D0E024FFFDA3E034FFFE9000D0EDF0EEA380
:2038A100F080569000D4E0F5F0A3E045F0604A9000C8E0602075822BC007123061D007900B
:2038C10000D0E024FFFDA3E034FFFE9000D0EDF0EEA3F080249000C9E0601E758220C0076C
:2038E100123061D0079000D0E024FFFDA3E034FFFE9000D0EDF0EEA3F09000C6E070449001
:2039010000D4E0F514A3E0F5159000D0E0FAA3E0FBC0078A068B071ABAFF011BC3E5149E72
:20392100E5159FD007504FEF60047E3080027E208E82C007C003C002123061D002D003D0E2
:203941000780CE9000D0E0FEA3E0FF9000D4E0F514A3E0F515C3E5149EE5159F500F900095
:20396100D0EEC39514F0EF9515A3F080119000D0E4F0A3F080089000D0EAF0EBA3F09000D8
:20398100DDE0FEA3E0FF9000D4E0F514A3E0F515AA14AD15151474FFB514021515EA4D6067
:2039A100449000CEE0B40100E433F09000CEE070130EBE00010F8E828F83E0C4540F900072
:2039C100B6F0800E8E828F83E0FD53050F9000B6EDF09000B6E0F582C007C00612309CD051
:2039E10006D00780AB9000C6E0700302316B9000D0E0FEA3E0FF8E038F051EBEFF011FEBAC
:203A01004D700302316B758220C007C006123061D006D00780E08C8212306102316B900014
:0A3A2100B7E0FEA3E08E82F58322D9
:0B3B5D003C4E4F20464C4F41543E00B0
:183A2B00AA82AB83123A436003A380F8C3E5829AF582E5839BF5832244
:0D205400758120123A5FE582600302205181
:1C3A430020F71430F6148883A88220F507E6A88375830022E280F7E49322E02292
:043A5F00758200224A
:00000001FF
