:0320000002204C6F
:202008000000E2FBEAF2802C0000E0FBEAF08024E6B50202EBF62200E2B50202EBF22200BE
:20202800E0B50202EBF02230F6E0A88220F5D3EAC6F582228B822230F6E6A88220F5D980CE
:01204800CFC8
:0320A500022049CD
:032049000220A8CA
:2020A80074FFC0E07431C0E07480C0E01227AB1581158115811220C280FB741FC0E074323E
:2020C800C0E07480C0E01227AB158115811581743BC0E07432C0E07480C0E01227AB15817B
:2020E80015811581744FC0E07432C0E07480C0E01227AB1581158115817462C0E07432C0ED
:20210800E07480C0E01227AB1581158115817474C0E07432C0E07480C0E01227AB158115AC
:202128008115811221D2AE828E057F008D828F83C0061221B3D006BE7719C006748AC0E0E4
:202148007432C0E07480C0E01227AB158115811581D006BE7219C006749EC0E07432C0E01A
:202168007480C0E01227AB158115811581D006BE6419C00674B2C0E07432C0E07480C0E0A6
:202188001227AB158115811581D006BE650280030220C274C0C0E07432C0E07480C0E0126F
:0B21A80027AB1581158115810220C2B4
:2031FF000A0D204C6162342050617274203120454550524F4D2050726F6772616D0A0D0037
:20321F000A0D202D2D2D2D2D2D20436F6D6D616E6473202D2D2D2D2D2D0A0D000A0D205725
:20323F00203A20577269746520427974650A0D000A0D2052203A20526561642042797465EC
:20325F000A0D000A0D2048203A204865782044756D700A0D000A0D2065203A2052657365A8
:20327F007420454550524F4D0A0D000A0D2057726974696E67206120427974650A0D000A4B
:20329F000D2052656164696E67206120427974650A0D000A0D204865782044756D700A0DB3
:1632BF00000A0D205265736574696E6720454550524F4D0A0D0082
:2021B300AF83E582900001F0EFA3F010990280FB900001E0FEA3E0FF8E998E828F832210DE
:0D21D300980280FBAE997F008E828F8322E0
:2021E000438901758A00758C4CD28C2243800143800243800143800222AF83E582900003E6
:20220000F0EFA3F0900003E0FEA3E0FF7D00000DEDFB3395E0FCC3EE9BEF9C50F122740194
:202220005580FF740255804207EFB401009200E433F58222E58030E0FBE58030E1F64380B1
:2022400001438002900074E0FE7F008E828F831221F95380FE5380FC22438001438002902E
:202260000074E0FE7F008E828F831221F95380FE5380FC225380FE438002900074E0FE7F86
:20228000008E828F831221F94380015380FC22E582900005F09000067480F0900005E0FF61
:2022A000900006E05F600543800180035380FE438002900074E0FD7E008D828E83C00712AF
:2022C00021F95380FC900074E0FD7E008D828E831221F9D007900006E075F00284F0E070F2
:2022E000BF438001438002900074E0FE7F008E828F831221F990007274015580F05380FCDC
:2023000022E582900007F0900008E4F09000097480F043800274015580FFBF010B90000952
:20232000E0FF900008E04FF05380FC900009E075F00284F0E070DB900007E0FFBF0105433B
:20234000800180035380FE5380FC438001900008E0F58222E58290000BF0122234900073A7
:20236000E0F58212228F900072E0FFBF0103122274900072E0FFBF010280DF90000AE0F586
:202380008212228F90000BE0F58212228F022274E58290000CF0122234900073E0F58212E4
:2023A000228F900072E0FFBF0103122274900072E0FFBF010280DF90000CE0F58212228F68
:2023C000122274122234900073E0FF0F8F8212228F758201122301AF82C007122274D00783
:2023E0008F8222AF82AE83ADF0FC900011EFF0EEA3F0EDA3F0ECA3F0900011E0FCA3E0FDB2
:20240000A3E0FEA3E0FF90002074E8F07403A3F0E4A3F0A3F08C828D838EF0EF12254FACEC
:2024200082AD83AEF0FF90002074E8F07403A3F0E4A3F0A3F08C828D838EF0EF12254FAC80
:2024400082AD8390002EECF0EDA3F090000C12265EAE820E0E0E90000DE0FBA3E0FCA3E0AA
:20246000FDA3E0FF8E0079007A007E00900020EBF0ECA3F0EDA3F0EFA3F0888289838AF042
:20248000EE12254FAC82900074ECF022E582900015F0E0900073F02222E58290001AF0E0A4
:2024A000FF900017E0FCA3E0FDA3E0FE900016E0FB7A00C3EB9A403CC003EA2CF8E43DF9EF
:2024C0008E03888289838BF01231DFF890000AEFF08882C007C006C005C004C003C0021290
:2024E0002354D002D003D004D005D006D0070A0FD00380BF22E58290001FF0E0FF90001C8C
:20250000E0FCA3E0FDA3E0FE90001BE0FB7A00C3EB9A403AC003EA2CF508E43DF5098E0A8F
:202520008F82C007C006C005C004C002122390AB82D002D004D005D006D0078508828509FB
:0F25400083850AF0EB1226430A0FD00380C122D5
:0332E000000000EB
:20254F00AF82AE83ADF0FC900024EFF0EEA3F0EDA3F0ECA3F0900028E4F0A3F0A3F0A3F019
:20256F00900020E0FCA3E0FDA3E0FEA3E0FF7B20C003900024E0F8A3E0F9A3E0FAA3E0FBDC
:20258F0090002C235401F0E828F8E933F9EA33FAEB33FB900024E8F0E9A3F0EAA3F0EBA3A8
:2025AF00F0900028E0F8A3E0F9A3E0FAA3E0FBE828F8E933F9EA33FAEB33FB900028E8F038
:2025CF00E9A3F0EAA3F0EBA3F0D00390002CE06008900028E043E001F0900028E0F516A3AC
:2025EF00E0F517A3E0F518A3E0F519C3E5169CE5179DE5189EE5199F401F900028E516C3BF
:20260F009CF0E5179DA3F0E5189EA3F0E5199FA3F0900024E043E001F01BEB600302257FDE
:14262F00900024E0FCA3E0FDA3E0FEA3E08C828D838EF022C5
:06207B00E478FFF6D8FD39
:202059007903E94400601B7A019032E0787275A000E493F2A308B8000205A0D9F4DAF275A6
:02207900A0FFC6
:1B26430020F71130F6138883A88220F509F6A8837583002280FEF280F5F02296
:20265E00AF83E582900030F0EFA3F0900030E0FEA3E0FF30E709C3E49EFCE49FFD80048E7E
:20267E00048F0590002EE0FEA3E0FF33E433FB6009C3E49EF9E49FFA80048E018F029000E9
:20269E0032E9F0EAA3F08C828D83C0031226D0AE82AF83D003900030E0A3E033E4336B603E
:1226BE000CC3E49EFCE49FFD8C828D83228E828F8322B9
:202081007800E84400600A790175A000E4F309D8FC7871E84400600C7901900001E4F0A3EB
:0420A100D8FCD9FA94
:2026D000AF83E582900034F0EFA3F0900036E4F0A3F0900032E0FEA3E0FF7D10900034E09B
:2026F000FBA3E0FC900038235401F0EB2BFBEC33FC900034EBF0ECA3F0900036E0FBA3E0B2
:20271000FCEB2BFBEC33FC900036EBF0ECA3F0900038E06008900036E043E001F0900036D1
:20273000E0FBA3E0FCC3EB9EEC9F4013900036EBC39EF0EC9FA3F0900034E043E001F0DD50
:0D2750009B900034E0FEA3E08E82F5832212
:20275D00C0158581157E008E831221B3D01522AFF0AE83E58290003AF0EEA3F0EFA3F0906C
:20277D00003AE0FDA3E0FEA3E0FF900039E0FC90004EE4F0A3F0A3F0900051EDF0EEA3F066
:20279D00EFA3F0900054ECF090275D0228AFC015E581F51524FBFF90004EE4F0A3F0A3F0B2
:2027BD00E51524FBF8900051E6F008E6A3F008E6A3F0900054EFF090275D1228AFD015226B
:2027DD00E58290004AF0E0FF900040E0C0E0A3E0C0E0A3E0C0E01227F8800D90003EE0C00A
:2027FD00E0A3E0C0E08F8222158115811581900048E02401F0A3E03400F022E58290004BEC
:20281D00F0E02430FF24C6500D74072FFF90003DE060034307208F820227DDE58290004CB4
:20283D00F0E0FFC4540FF582C007122818D00753070F8F82022818E58290004DF09000435B
:20285D00E0FCA3E0FDA3E0FEA3E0FF900047E0FB90004DE0FA7920EB2BF516EF235401452D
:20287D0016FBEC2CFCED33FDEE33FEEF33FFC3EB9A4007EBC39AFB43040119E970D99000C4
:20289D0043ECF0EDA3F0EEA3F0EFA3F0900047EBF022AF83E582900055F0EFA3F0900055D0
:2028BD00E0FEA3E0FF90003EEEF0EFA3F090004EE0FDA3E0FEA3E0FF900040EDF0EEA3F081
:2028DD00EFA3F0900048E4F0A3F0900051E0FDA3E0FEA3E0FF8D828E838FF01231DFFC900C
:2028FD00005174012DF0E43EA3F0EFA3F0EC700302319BBC25028003023193900057E4F08D
:20291D00900058F0900059F090005AF090005BF090005CF090005DF090005EF0900060F0BD
:20293D00900061F0A3F090006314F0A3F0900051E0FDA3E0FEA3E0FF8D828E838FF01231D9
:20295D00DFFBA3AD82AE83900051EDF0EEA3F0EFA3F0900067EBF0BB25088B821227DD02DD
:20297D0028E7BB30005003022A48EB24C65003022A48900063E0F50BA3E0F50C74FFB50B53
:20299D0063B50C60C005C006C007900061E0FAA3E0FF900070EAF0EFA3F090000AC005C07C
:2029BD00031231BFAE82AF83D003D0058B057A00ED2EFEEA3FFFEE24D0FEEF34FFFF90000F
:2029DD0061EEF0EFA3F0D007D006D005900061E0F5F0A3E045F060030229559000587401E9
:2029FD00F0022955C005C006C007900070E50BF0E50CA3F090000AC006C005C0031231BFAA
:202A1D00AA82AF83D003D005D0067E00EB2AFAEE3FFFEA24D0FAEF34FFFF900063EAF0EF4F
:202A3D00A3F0D007D006D005022955900067E0FBBB2E2FC005C006C007900063E0FAA3E058
:202A5D00FFBAFF05BFFF028009D007D006D005022955D007D006D005900063E4F0A3F00273
:202A7D002955BB61004014EB2485400F90006774DF5BF090003D7401F0800590003DE4F07B
:202A9D00900067E0FBBB20028075BB2B028067BB2D028059BB4202806FBB4302807CBB44FA
:202ABD0003022D3FBB4603022D65BB4803022955BB4903022D3FBB4A03022955BB4C0280E4
:202ADD0050BB4F03022D4DBB5003022CADBB53028077BB5403022955BB5503022D55BB58D4
:202AFD0003022D5DBB5A03022955022D6D9000577401F00229559000597401F002295590CC
:202B1D00005A7401F002295590005C7401F002295590005D7401F002295590005CE0600E7C
:202B3D00900054E014F9F0900067E7F0800F900054E024FEFFF08F01900067E7F090006730
:202B5D00E0F5821227DD022D7C900054E024FDFFF08F01870509870609870719199000431E
:202B7D00EDF0EEA3F0EFA3F08D828E838FF01231A785820B85830C900063E0FAA3E0FDBAA2
:202B9D00FF0DBDFF0A900063E50BF0E50CA3F0900057E0704B900061E0FAA3E0FDC3E50B6F
:202BBD009AE50C9D503A900061EAC3950BF0ED950CA3F0900061E0FAA3E0FD8A068D071A6E
:202BDD00BAFF011DEE4F6010758220C005C0021227DDD002D00580E3900061EAF0EDA3F04B
:202BFD00900063E0F50EA3E0F50F900043E0FAA3E0FDA3E0FF8A828D838FF01231DFF50DED
:202C1D00603CC3E4950E7480850FF063F08095F0502C150E74FFB50E02150F850D82122799
:202C3D00DD900043E0FAA3E0FDA3E0FF0ABA00010D900043EAF0EDA3F0EFA3F080AC9000AE
:202C5D0057E07003022D7C900061E0FEA3E0FFC3E50B9EE50C9F4003022D7C900061EEC340
:202C7D00950BF0EF950CA3F0900061E0FEA3E0FF8E028F051EBEFF011FEA4D7003022D74C7
:202C9D00758220C007C0061227DDD006D00780E0900054E024FDFDF08D01871009871109AF
:202CBD0087121919900043E510F0E511A3F0E512A3F0900045E0FDBD8000400890006774BF
:202CDD0043F08020BD600040089000677450F08013BD400040089000677449F08006900062
:202CFD00677458F0900067E0FDF582C0051227DD75823A1227DD7582301227DD7582781269
:202D1D0027DDD005BD4902800EBD50028009900044E0F582122838900043E0F58212283856
:202D3D00803D90005B7401F0900060740AF0802F9000607408F08027900060740AF0801F5C
:202D5D009000607410F0801790005E7401F0800F8B821227DD8008900061EEF0EFA3F090ED
:202D7D00005EE06071900054E024FCFFF08F0187030987050987060987071919199000435A
:202D9D00EBF0EDA3F0EEA3F0EFA3F090004374D5F07432A3F07480A3F0900043E0F510A391
:202DBD00E0F511A3E0F51274012510FAE43511FBAF12900043EAF0EBA3F0EFA3F085108238
:202DDD008511838512F01231DFFF70030228E78F821227DD80C3900060E0F50EE0700302FF
:202DFD0028E790005CE06047900054E014F9F087067D007B007A00900043EEF0EDA3F0EB58
:202E1D00A3F0EAA3F090005BE06003022EC2900043E0FAA3E0A3E0A3E07B007D007E009029
:202E3D000043EAF0EBA3F0EDA3F0EEA3F0807690005DE06028900054E024FCFEF08E0187A6
:202E5D0002098703098705098706191919900043EAF0EBA3F0EDA3F0EEA3F0804890005472
:202E7D00E024FEFEF08E01870509870619EE3395E0FBFA900043EDF0EEA3F0EBA3F0EAA3B4
:202E9D00F090005BE0701E900043E0FAA3E0FBA3E0A3E07D007E00900043EAF0EBA3F0ED88
:202EBD00A3F0EEA3F090005BE0603D900043E0A3E0A3E0A3E030E72B900043E0FAA3E0FBD0
:202EDD00A3E0FDA3E0FEC3E49AFAE49BFBE49DFDE49EFE900043EAF0EBA3F0EDA3F0EEA3E5
:202EFD00F0800590005BE4F090005F7401F075136D751400E4F50BF50C900047E4F0850E8C
:202F1D008212285490005FE07033900047E0C454F0F510900047E0C4540F4510F51085137E
:202F3D0082851483E0FFE5104207851382851483EFF0151374FFB513021514800B900047B4
:202F5D00E0851382851483F0050BE4B50B02050C90005FE0B40100E433F0900043E0FAA3AC
:202F7D00E0FBA3E0FEA3E0FFEA4B4E4F708B90006EE513F0E514A3F0900065E50BF0E50C51
:202F9D00A3F0900061E0F5F0A3E045F070099000617401F0E4A3F0900058E0FFE0703E90E8
:202FBD000057E07038900061E0FDA3E0FE900065E0FB0B7A00C3EB9DEA9E5019758220C05E
:202FDD0007C006C0051227DDD005D006D0071DBDFF011E80D8900061EDF0EEA3F090005B20
:202FFD00E0602075822DC0071227DDD007900061E024FFFDA3E034FFFE900061EDF0EEA378
:20301D00F08056900065E0F5F0A3E045F0604A900059E0602075822BC0071227DDD0079002
:20303D000061E024FFFDA3E034FFFE900061EDF0EEA3F0802490005AE0601E758220C00745
:20305D001227DDD007900061E024FFFDA3E034FFFE900061EDF0EEA3F0900057E070449067
:20307D000065E0F513A3E0F514900061E0FAA3E0FBC0078A068B071ABAFF011BC3E5139EE0
:20309D00E5149FD007504FEF60047E3080027E208E82C007C003C0021227DDD002D003D0FD
:2030BD000780CE900061E0FEA3E0FF900065E0F513A3E0F514C3E5139EE5149F500F900004
:2030DD0061EEC39513F0EF9514A3F08011900061E4F0A3F08008900061EAF0EBA3F09000B4
:2030FD006EE0FEA3E0FF900065E0F513A3E0F514AA13AD14151374FFB513021514EA4D60D9
:20311D004490005FE0B40100E433F090005FE070130EBE00010F8E828F83E0C4540F9000DC
:20313D0047F0800E8E828F83E0FD53050F900047EDF0900047E0F582C007C006122818D0B6
:20315D0006D00780AB900057E070030228E7900061E0FEA3E0FF8E038F051EBEFF011FEBA3
:20317D004D70030228E7758220C007C0061227DDD006D00780E08C821227DD0228E79000D5
:0A319D0048E0FEA3E08E82F58322D5
:0B32D5003C4E4F20464C4F41543E0041
:1831A700AA82AB831231DF6003A380F8C3E5829AF582E5839BF583223E
:2031BF00AA83AB828BF0900070E0A4F8A9F08AF0E0A429F98BF0A3E0A429F5838882222255
:0D204C007581201231FBE5826003022049FE
:1C31DF0020F71430F6148883A88220F507E6A88375830022E280F7E49322E022FF
:0431FB0075820022B7
:00000001FF
