:0320000002204C6F
:202008000000E2FBEAF2802C0000E0FBEAF08024E6B50202EBF62200E2B50202EBF22200BE
:20202800E0B50202EBF02230F6E0A88220F5D3EAC6F582228B822230F6E6A88220F5D980CE
:01204800CFC8
:0320A500022049CD
:032049000220A8CA
:2020A8001223B99000147401F0E4A3F0A3F0A3F090C00075F0A81225DD7582A012268D7443
:2020C80020C0E07435C0E07480C0E0122AEC15811581158112213C80FB7F00C00712239F6D
:2020E800AD82D007BD0D028021BF0500500DEF2401F582E43400F583EDF00F7E008D828E22
:2021080083C007122380D00780D1EF2401F582E43400F583E4F07440C0E07435C0E0748010
:20212800C0E0122AEC15811581158190000175F0000228447443C0E07435C0E07480C0E075
:20214800122AEC158115811581745FC0E07435C0E07480C0E0122AEC15811581158174736C
:20216800C0E07435C0E07480C0E0122AEC1581158115817486C0E07435C0E07480C0E01267
:202188002AEC1581158115817498C0E07435C0E07480C0E0122AEC15811581158112239F18
:2021A800AE828E057F008D828F83C006122380D006BE7702800302226474AEC0E07435C0F6
:2021C800E07480C0E0122AEC15811581158174C2C0E07435C0E07480C0E0122AEC15811513
:2021E8008115811220E1AD82AF83C007C00574CCC0E07435C0E07480C0E0122AEC15811530
:202208008115811220E1AB82AC83C004C00374D9C0E07435C0E07480C0E0122AEC1581150C
:202228008115811220E1A982AA83D003D004D005D007ED2DFD74A04D54FEF582C004C003F9
:20224800C002C00112268DD001D002D003D004900011EBF0898212255102213CBE720280C4
:20226800030222FB74E3C0E07435C0E07480C0E0122AEC15811581158174C2C0E07435C037
:20228800E07480C0E0122AEC1581158115811220E1AD82AF83C007C00574CCC0E07435C08F
:2022A800E07480C0E0122AEC1581158115811220E1AB82AC83D005D007ED2DFD74A04D54D1
:2022C800FEF582C004C00312268DD003D0048B8212258DAF827D00C007C00574F7C0E07404
:2022E80035C0E07480C0E0122AECE58124FBF58102213CBE64487408C0E07436C0E0748027
:20230800C0E0122AEC1581158115817416C0E07436C0E07480C0E0122AEC15811581158139
:202328001220E17429C0E07436C0E07480C0E0122AEC1581158115811220E102213CBE65E8
:2023480002800302213C743AC0E07436C0E07480C0E0122AEC1581158115811224217F00A5
:18236800BF0900500AC0071223C4D0070F80F112242112243802213C00
:203520000A0D204C6162342050617274203120454550524F4D2050726F6772616D0A0D0012
:203540000A0D000A0D202D2D2D2D2D2D20436F6D6D616E6473202D2D2D2D2D2D0A0D000A6E
:203560000D2057203A20577269746520427974650A0D000A0D2052203A2052656164204296
:203580007974650A0D000A0D2048203A204865782044756D700A0D000A0D2065203A20526F
:2035A0006573657420454550524F4D0A0D000A0D2057726974696E67206120427974650A01
:2035C0000D000A0D20506167653A20000A0D20416464726573733A20000A0D2044617461C8
:2035E0003A20000A0D2052656164696E67206120427974650A0D000A0D20446174612069FA
:20360000733A2025640A0D000A0D204865782044756D700A0D000A0D204164647265737317
:203620002053746172743A20000A0D204164647265737320456E643A20000A0D2052657313
:0F3640006574696E6720454550524F4D0A0D0065
:20238000AF83E582900007F0EFA3F010990280FB900007E0FEA3E0FF8E998E828F83221003
:0D23A000980280FBAE997F008E828F832211
:2023AD00438901758A00758C4CD28C22439002439001D291D29022AF83E582900009F0EFD6
:2023CD00A3F0900009E0FEA3E0FF7D00000DEDFB3395E0FCC3EE9BEF9C50F12290000BA2D7
:2023ED00917290E433F090000BE0B40100E433F090000BE0F582223091FD3090FAD291D23E
:20240D0090900080E0FE7F008E828F831223C4C291C29022D291D290900080E0FE7F008E10
:20242D00828F831223C4C291C29022C291D290900080E0FE7F008E828F831223C4D2912279
:20244D00E58290000CF090000D7480F090000CE0FF90000DE05F6004D2918002C291D290A6
:20246D00900080E0FD7E008D828E83C0071223C4C290900080E0FD7E008D828E831223C42E
:20248D00D00790000DE075F00284F0E070C3D290900080E0FE7F008E828F831223C4900073
:2024AD007EA291E433F0C290900080E0FE7F008E828F830223C4E58290000EF090000FE415
:2024CD00F09000107480F0D29030910B900010E0FF90000FE04FF0900080E0FE7F008E8293
:2024ED008F831223C4C290900080E0FE7F008E828F831223C4900010E075F00284F0E0703F
:20250D00C6D290900080E0FE7F008E828F831223C490000EE0FFBF0104D2918002C29190F5
:20252D000080E0FE7F008E828F831223C4C290900080E0FE7F008E828F831223C490000F1D
:20254D00E0F58222E582900012F012242190007FE0F58212244D90007EE0FFBF01031224D6
:20256D003890007EE0FFBF010280DF900011E0F58212244D900012E0F58212244D022438B3
:20258D00E582900013F012242190007FE0F58212244D90007EE0FFBF010312243890007EC8
:2025AD00E0FFBF010280DF900013E0F58212244D12242190007FE0FF0F8F8212244D7582B2
:2025CD00011224C3AF82C007122438D0078F8222AF82AE83ADF0FC900018EFF0EEA3F0ED94
:2025ED00A3F0ECA3F0900018E0FCA3E0FDA3E0FEA3E0FF90002774E8F07403A3F0E4A3F031
:20260D00A3F08C828D838EF0EF122750AC82AD83AEF0FF90002774E8F07403A3F0E4A3F087
:20262D00A3F08C828D838EF0EF122750AC82AD8390003CECF0EDA3F090000C12299FAE82BA
:20264D00AF83E4FDFC74032EFEE43FFFE43DFDE43CFC900014E0F8A3E0F9A3E0FAA3E0FB6C
:20266D00900027E8F0E9A3F0EAA3F0EBA3F08E828F838DF0EC122750AC82900080ECF022F7
:20268D00E58290001CF0E090007FF02222E582900021F0E0FF90001EE0FCA3E0FDA3E0FE95
:2026AD0090001DE0FB7A00C3EB9A403CC003EA2CF8E43DF98E03888289838BF0123500F8FB
:2026CD00900011EFF08882C007C006C005C004C003C002122551D002D003D004D005D0061C
:2026ED00D0070A0FD00380BF22E582900026F0E0FF900023E0FCA3E0FDA3E0FE900022E09B
:20270D00FB7A00C3EB9A403AC003EA2CF508E43DF5098E0A8F82C007C006C005C004C002FF
:20272D0012258DAB82D002D004D005D006D007850882850983850AF0EB1229640A0FD0035E
:03274D0080C12226
:03365A000000006D
:20275000AF82AE83ADF0FC90002BEFF0EEA3F0EDA3F0ECA3F090002FE4F0A3F0A3F0A3F008
:20277000900027E0FCA3E0FDA3E0FEA3E0FF7B20C00390002BE0F8A3E0F9A3E0FAA3E0FBCB
:20279000900033235401F0E828F8E933F9EA33FAEB33FB90002BE8F0E9A3F0EAA3F0EBA397
:2027B000F090002FE0F8A3E0F9A3E0FAA3E0FBE828F8E933F9EA33FAEB33FB90002FE8F027
:2027D000E9A3F0EAA3F0EBA3F0D003900033E0600890002FE043E001F090002FE0F517A393
:2027F000E0F518A3E0F519A3E0F51AC3E5179CE5189DE5199EE51A9F401F90002FE517C3AD
:202810009CF0E5189DA3F0E5199EA3F0E51A9FA3F090002BE043E001F01BEB6003022780CE
:1428300090002BE0FCA3E0FDA3E0FEA3E08C828D838EF022BB
:06207B00E478FFF6D8FD39
:20284400AFF0AE83E582900034F0EEA3F0EFA3F0900037E4F0A3F0900034E0FDA3E0FEA393
:20286400E0FF8D828E838FF0123500FCBC20028003BC09120DBD00010E900034EDF0EEA350
:20288400F0EFA3F080DC900034EDF0EEA3F0EFA3F08D828E838FF0123500FCE4BC2D01040E
:2028A400F50BBC2D028003BC2B0E90003474012DF0E43EA3F0EFA3F0900034E0FDA3E0FE02
:2028C400A3E0FF8D828E838FF0123500FCBC30009200405FEC24C692004058900037E0FBD1
:2028E400A3E0FC90003AEBF0ECA3F090000AC007C006C00512297FAB82AC83D005D006D0B4
:20290400078D828E838FF0123500FAA3AD82AE83900034EDF0EEA3F0EFA3F08A017A00E937
:2029240024D0F9EA34FFFA900037E92BF0EA3CA3F08090900034EDF0EEA3F0EFA3F0E50B67
:202944006011900037E0FEA3E0FFC3E49EFEE49FFF8008900037E0FEA3E0FF8E828F832223
:202059007903E94400601B7A0190365A787E75A000E493F2A308B8000205A0D9F4DAF2751C
:02207900A0FFC6
:1B29640020F71130F6138883A88220F509F6A8837583002280FEF280F5F02272
:20297F00AA83AB828BF090003AE0A4F8A9F08AF0E0A429F98BF0A3E0A429F58388822222D3
:20299F00AF83E58290003EF0EFA3F090003EE0FEA3E0FF30E709C3E49EFCE49FFD80048E1E
:2029BF00048F0590003CE0FEA3E0FF33E433FB6009C3E49EF9E49FFA80048E018F02900097
:2029DF0040E9F0EAA3F08C828D83C003122A11AE82AF83D00390003EE0A3E033E4336B6099
:1229FF000CC3E49EFCE49FFD8C828D83228E828F832275
:202081007800E84400600A790175A000E4F309D8FC787DE84400600C7901900001E4F0A3DF
:0420A100D8FCD9FA94
:202A1100AF83E582900042F0EFA3F0900044E4F0A3F0900040E0FEA3E0FF7D10900042E01E
:202A3100FBA3E0FC900046235401F0EB2BFBEC33FC900042EBF0ECA3F0900044E0FBA3E043
:202A5100FCEB2BFBEC33FC900044EBF0ECA3F0900046E06008900044E043E001F090004455
:202A7100E0FBA3E0FCC3EB9EEC9F4013900044EBC39EF0EC9FA3F0900042E043E001F0DDF0
:0D2A91009B900042E0FEA3E08E82F58322C0
:202A9E00C0168581167E008E83122380D01622AFF0AE83E582900048F0EEA3F0EFA3F09048
:202ABE000048E0FDA3E0FEA3E0FF900047E0FC90005CE4F0A3F0A3F090005FEDF0EEA3F0EA
:202ADE00EFA3F0900062ECF0902A9E022BF0C016E581F51624FBFF90005CE4F0A3F0A3F0C8
:202AFE00E51624FBF890005FE6F008E6A3F008E6A3F0900062EFF0902A9E122BF0D0162281
:202B1E00E582900058F0E0FF90004EE0C0E0A3E0C0E0A3E0C0E0122B39800D90004CE0C056
:202B3E00E0A3E0C0E08F8222158115811581900056E02401F0A3E03400F022E5829000598B
:202B5E00F0E02430FF24C6500D74072FFF90004BE060034307208F82022B1EE58290005A0F
:202B7E00F0E0FFC4540FF582C007122B59D00753070F8F82022B59E58290005BF090005173
:202B9E00E0FCA3E0FDA3E0FEA3E0FF900055E0FB90005BE0FA7920EB2BF517EF23540145CC
:202BBE0017FBEC2CFCED33FDEE33FEEF33FFC3EB9A4007EBC39AFB43040119E970D990007F
:202BDE0051ECF0EDA3F0EEA3F0EFA3F0900055EBF022AF83E582900063F0EFA3F090006354
:202BFE00E0FEA3E0FF90004CEEF0EFA3F090005CE0FDA3E0FEA3E0FF90004EEDF0EEA3F013
:202C1E00EFA3F0900056E4F0A3F090005FE0FDA3E0FEA3E0FF8D828E838FF0123500FC9086
:202C3E00005F74012DF0E43EA3F0EFA3F0EC70030234DCBC250280030234D4900065E4F0A4
:202C5E00900066F0900067F0900068F0900069F090006AF090006BF090006CF090006EF009
:202C7E0090006FF0A3F090007114F0A3F090005FE0FDA3E0FEA3E0FF8D828E838FF0123567
:202C9E0000FBA3AD82AE8390005FEDF0EEA3F0EFA3F0900075EBF0BB25088B82122B1E0217
:202CBE002C28BB30005003022D89EB24C65003022D89900071E0F50CA3E0F50D74FFB50C31
:202CDE0063B50D60C005C006C00790006FE0FAA3E0FF90003AEAF0EFA3F090000AC005C05F
:202CFE000312297FAE82AF83D003D0058B057A00ED2EFEEA3FFFEE24D0FEEF34FFFF900013
:202D1E006FEEF0EFA3F0D007D006D00590006FE0F5F0A3E045F06003022C96900066740136
:202D3E00F0022C96C005C006C00790003AE50CF0E50DA3F090000AC006C005C00312297F9D
:202D5E00AA82AF83D003D005D0067E00EB2AFAEE3FFFEA24D0FAEF34FFFF900071EAF0EFFD
:202D7E00A3F0D007D006D005022C96900075E0FBBB2E2FC005C006C007900071E0FAA3E0B4
:202D9E00FFBAFF05BFFF028009D007D006D005022C96D007D006D005900071E4F0A3F002DD
:202DBE002C96BB61004014EB2485400F90007574DF5BF090004B7401F0800590004BE4F0C9
:202DDE00900075E0FBBB20028075BB2B028067BB2D028059BB4202806FBB4302807CBB44A8
:202DFE0003023080BB46030230A6BB4803022C96BB4903023080BB4A03022C96BB4C02804C
:202E1E0050BB4F0302308EBB5003022FEEBB53028077BB5403022C96BB5503023096BB587F
:202E3E000302309EBB5A03022C960230AE9000657401F0022C969000677401F0022C969017
:202E5E0000687401F0022C9690006A7401F0022C9690006B7401F0022C9690006AE0600E34
:202E7E00900062E014F9F0900075E7F0800F900062E024FEFFF08F01900075E7F0900075A6
:202E9E00E0F582122B1E0230BD900062E024FDFFF08F018705098706098707191990005135
:202EBE00EDF0EEA3F0EFA3F08D828E838FF01234E885820C85830D900071E0FAA3E0FDBA0A
:202EDE00FF0DBDFF0A900071E50CF0E50DA3F0900065E0704B90006FE0FAA3E0FDC3E50CFE
:202EFE009AE50D9D503A90006FEAC3950CF0ED950DA3F090006FE0FAA3E0FD8A068D071A0B
:202F1E00BAFF011DEE4F6010758220C005C002122B1ED002D00580E390006FEAF0EDA3F0B3
:202F3E00900071E0F50FA3E0F510900051E0FAA3E0FDA3E0FF8A828D838FF0123500F50E64
:202F5E00603CC3E4950F74808510F063F08095F0502C150F74FFB50F021510850E82122B4B
:202F7E001E900051E0FAA3E0FDA3E0FF0ABA00010D900051EAF0EDA3F0EFA3F080AC90000D
:202F9E0065E070030230BD90006FE0FEA3E0FFC3E50C9EE50D9F40030230BD90006FEEC348
:202FBE00950CF0EF950DA3F090006FE0FEA3E0FF8E028F051EBEFF011FEA4D70030230B52F
:202FDE00758220C007C006122B1ED006D00780E0900062E024FDFDF08D0187110987120916
:202FFE0087131919900051E511F0E512A3F0E513A3F0900053E0FDBD80004008900075744D
:20301E0043F08020BD600040089000757450F08013BD400040089000757449F08006900001
:20303E00757458F0900075E0FDF582C005122B1E75823A122B1E758230122B1E7582781239
:20305E002B1ED005BD4902800EBD50028009900052E0F582122B79900051E0F582122B7929
:20307E00803D9000697401F090006E740AF0802F90006E7408F0802790006E740AF0801FE0
:20309E0090006E7410F0801790006C7401F0800F8B82122B1E800890006FEEF0EFA3F0903A
:2030BE00006CE06071900062E024FCFFF08F018703098705098706098707191919900051EC
:2030DE00EBF0EDA3F0EEA3F0EFA3F0900051744FF07436A3F07480A3F0900051E0F511A3B2
:2030FE00E0F512A3E0F51374012511FAE43512FBAF13900051EAF0EBA3F0EFA3F0851182E0
:20311E008512838513F0123500FF7003022C288F82122B1E80C390006EE0F50FE0700302FA
:20313E002C2890006AE06047900062E014F9F087067D007B007A00900051EEF0EDA3F0EBA4
:20315E00A3F0EAA3F0900069E06003023203900051E0FAA3E0A3E0A3E07B007D007E009084
:20317E000051EAF0EBA3F0EDA3F0EEA3F0807690006BE06028900062E024FCFEF08E018738
:20319E0002098703098705098706191919900051EAF0EBA3F0EDA3F0EEA3F0804890006212
:2031BE00E024FEFEF08E01870509870619EE3395E0FBFA900051EDF0EEA3F0EBA3F0EAA362
:2031DE00F0900069E0701E900051E0FAA3E0FBA3E0A3E07D007E00900051EAF0EBA3F0ED1A
:2031FE00A3F0EEA3F0900069E0603D900051E0A3E0A3E0A3E030E72B900051E0FAA3E0FB62
:20321E00A3E0FDA3E0FEC3E49AFAE49BFBE49DFDE49EFE900051EAF0EBA3F0EDA3F0EEA392
:20323E00F08005900069E4F090006D7401F075147B751500E4F50CF50D900055E4F0850F0A
:20325E0082122B9590006DE07033900055E0C454F0F511900055E0C4540F4511F5118514C8
:20327E0082851583E0FFE5114207851482851583EFF0151474FFB514021515800B9000555B
:20329E00E0851482851583F0050CE4B50C02050D90006DE0B40100E433F0900051E0FAA347
:2032BE00E0FBA3E0FEA3E0FFEA4B4E4F708B90007CE514F0E515A3F0900073E50CF0E50DED
:2032DE00A3F090006FE0F5F0A3E045F0700990006F7401F0E4A3F0900066E0FFE0703E907A
:2032FE000065E0703890006FE0FDA3E0FE900073E0FB0B7A00C3EB9DEA9E5019758220C0F0
:20331E0007C006C005122B1ED005D006D0071DBDFF011E80D890006FEDF0EEA3F09000697A
:20333E00E0602075822DC007122B1ED00790006FE024FFFDA3E034FFFE90006FEDF0EEA3D2
:20335E00F08056900073E0F5F0A3E045F0604A900067E0602075822BC007122B1ED007905D
:20337E00006FE024FFFDA3E034FFFE90006FEDF0EEA3F08024900068E0601E758220C007D7
:20339E00122B1ED00790006FE024FFFDA3E034FFFE90006FEDF0EEA3F0900065E0704490B4
:2033BE000073E0F514A3E0F51590006FE0FAA3E0FBC0078A068B071ABAFF011BC3E5149E7D
:2033DE00E5159FD007504FEF60047E3080027E208E82C007C003C002122B1ED002D003D073
:2033FE000780CE90006FE0FEA3E0FF900073E0F514A3E0F515C3E5149EE5159F500F9000A0
:20341E006FEEC39514F0EF9515A3F0801190006FE4F0A3F0800890006FEAF0EBA3F0900043
:20343E007CE0FEA3E0FF900073E0F514A3E0F515AA14AD15151474FFB514021515EA4D6071
:20345E004490006DE0B40100E433F090006DE070130EBE00010F8E828F83E0C4540F90007C
:20347E0055F0800E8E828F83E0FD53050F900055EDF0900055E0F582C007C006122B59D004
:20349E0006D00780AB900065E07003022C2890006FE0FEA3E0FF8E038F051EBEFF011FEBFE
:2034BE004D7003022C28758220C007C006122B1ED006D00780E08C82122B1E022C2890007D
:0A34DE0056E0FEA3E08E82F5832283
:0B364F003C4E4F20464C4F41543E00C3
:1834E800AA82AB831235006003A380F8C3E5829AF582E5839BF58322D5
:0D204C0075812012351CE5826003022049D9
:1C35000020F71430F6148883A88220F507E6A88375830022E280F7E49322E022DA
:04351C007582002292
:00000001FF
