:0320000002204C6F
:202008000000E2FBEAF2802C0000E0FBEAF08024E6B50202EBF62200E2B50202EBF22200BE
:20202800E0B50202EBF02230F6E0A88220F5D3EAC6F582228B822230F6E6A88220F5D980CE
:01204800CFC8
:0320A500022049CD
:032049000220A8CA
:2020A8001225399000147401F0E4A3F0A3F0A3F090C00075F0A812275D7582A012280D74BD
:2020C800B3C0E07437C0E07480C0E0122D7F15811581158112213C80FB7F00C00712251FC0
:2020E800AD82D007BD0D028021BF0500500DEF2401F582E43400F583EDF00F7E008D828E22
:2021080083C007122500D00780D1EF2401F582E43400F583E4F074D3C0E07437C0E07480F9
:20212800C0E0122D7F15811581158190000175F0000229C474D6C0E07437C0E07480C0E0C9
:20214800122D7F15811581158174F2C0E07437C0E07480C0E0122D7F158115811581740618
:20216800C0E07438C0E07480C0E0122D7F1581158115817419C0E07438C0E07480C0E01238
:202188002D7F158115811581742BC0E07438C0E07480C0E0122D7F15811581158112251FD4
:2021A800AE828E057F008D828F83C006122500D006BE770280030222647441C0E07438C0DE
:2021C800E07480C0E0122D7F1581158115817455C0E07438C0E07480C0E0122D7F15811551
:2021E8008115811220E1AD82AF83C007C005745FC0E07438C0E07480C0E0122D7F15811504
:202208008115811220E1AB82AC83C004C003746CC0E07438C0E07480C0E0122D7F158115E0
:202228008115811220E1A982AA83D003D004D005D007ED2DFD74A04D54FEF582C004C003F9
:20224800C002C00112280DD001D002D003D004900011EBF089821226D102213CBE720280C1
:20226800030222FB7476C0E07438C0E07480C0E0122D7F1581158115817455C0E07438C075
:20228800E07480C0E0122D7F1581158115811220E1AD82AF83C007C005745FC0E07438C063
:2022A800E07480C0E0122D7F1581158115811220E1AB82AC83D005D007ED2DFD74A04D543B
:2022C800FEF582C004C00312280DD003D0048B8212270DAF827D00C007C005748AC0E0746D
:2022E80038C0E07480C0E0122D7FE58124FBF58102213CBE680280030224BD749BC0E074A1
:2023080038C0E07480C0E0122D7F1581158115817455C0E07438C0E07480C0E0122D7F15AD
:2023280081158115811220E1AD82AF83C007C00574A9C0E07438C0E07480C0E0122D7F1578
:2023480081158115811220E1AB82AC83C004C00374BCC0E07438C0E07480C0E0122D7F154F
:2023680081158115811220E1E5828583F0D003D004D005C39BF9E5F09CFA8D00E828F874EF
:20238800A04854FEF582C005C004C003C002C00112280DD001D002D003D004D005D007E494
:2023A800F508F509C3E50899E50964808AF063F08095F0400302213C90003C7410F0E4A3C4
:2023C800F0850882850983C007C005C004C003C002C001122B1FE5828583F0D001D002D021
:2023E80003D004D005D00745F07072C001C002C007C005C004C003C002C00174CDC0E074CD
:2024080038C0E07480C0E0122D7F158115811581D001D002D003D004D005D007E5082BF8C2
:20242800E5093CFAC007C005C004C003C002C001C000C002C005C00774D1C0E07438C0E09B
:202448007480C0E0122D7FE58124F9F581D001D002D003D004D005D007D002D001C001C00F
:20246800028B00E50828F582C007C005C004C003C00112270DAA82D0018A017A00C002C09D
:2024880001C001C00274D7C0E07438C0E07480C0E0122D7FE58124FBF581D001D002D003B6
:2024A800D004D005D0070508E4B508020509D002D0010223ACBE6502800302213C74DBC04C
:2024C800E07438C0E07480C0E0122D7F1581158115811225A17F00BF09005013D291D2906D
:1824E800C007122544C290122544D0070F80E81225A11225B802213C59
:2037B3000A0D204C6162342050617274203120454550524F4D2050726F6772616D0A0D007D
:2037D3000A0D000A0D202D2D2D2D2D2D20436F6D6D616E6473202D2D2D2D2D2D0A0D000AD9
:2037F3000D2077203A20577269746520427974650A0D000A0D2072203A20526561642042C1
:203813007974650A0D000A0D2068203A204865782044756D700A0D000A0D2065203A2052B9
:203833006573657420454550524F4D0A0D000A0D2057726974696E67206120427974650A6B
:203853000D000A0D20506167653A20000A0D20416464726573733A20000A0D204461746132
:203873003A20000A0D2052656164696E67206120427974650A0D000A0D2044617461206964
:20389300733A2025640A0D000A0D204865782044756D700A0D000A0D204164647265737382
:2038B3002053746172743A20000A0D204164647265737320456E643A20000A0D200025582B
:1D38D30025582000255820000A0D205265736574696E6720454550524F4D0A0D0027
:20250000AF83E582900007F0EFA3F010990280FB900007E0FEA3E0FF8E998E828F83221081
:0D252000980280FBAE997F008E828F83228F
:20252D00438901758A00758C4CD28C22439002439001D291D29022AF83E582900009F0EF54
:20254D00A3F0900009E0FEA3E0FF7D00000DEDFB3395E0FCC3EE9BEF9C50F12290000BA255
:20256D00917290E433F090000BE0B40100E433F090000BE0F582223091FD3090FAD291D2BC
:20258D0090900089E0FE7F008E828F83122544C291C29022D291D290900089E0FE7F008EFB
:2025AD00828F83122544C291C29022C291D290900089E0FE7F008E828F83122544D29122EB
:2025CD00E58290000CF090000D7480F090000CE0FF90000DE05F6004D2918002C291D29025
:2025ED00900089E0FD7E008D828E83C007122544C290900089E0FD7E008D828E8312254497
:20260D00D00790000DE075F00284F0E070C3D290900089E0FE7F008E828F83122544900066
:20262D0087A291E433F0C290900089E0FE7F008E828F83022544E58290000EF090000FE4FF
:20264D00F09000107480F0D29030910B900010E0FF90000FE04FF0900089E0FE7F008E8208
:20266D008F83122544C290900089E0FE7F008E828F83122544900010E075F00284F0E070B0
:20268D00C6D290900089E0FE7F008E828F8312254490000EE0FFBF0104D2918002C29190E9
:2026AD000089E0FE7F008E828F83122544C290900089E0FE7F008E828F8312254490000F86
:2026CD00E0F58222E582900012F01225A1900088E0F5821225CD900087E0FFBF0103122540
:2026ED00B8900087E0FFBF010280DF900011E0F5821225CD900012E0F5821225CD0225B826
:20270D00E582900013F01225A1900088E0F5821225CD900087E0FFBF01031225B8900087A8
:20272D00E0FFBF010280DF900013E0F5821225CD1225A1900088E0FF0F8F821225CD7582A4
:20274D0001122643AF82C0071225B8D0078F8222AF82AE83ADF0FC900018EFF0EEA3F0ED0F
:20276D00A3F0ECA3F0900018E0FCA3E0FDA3E0FEA3E0FF90002774E8F07403A3F0E4A3F0AF
:20278D00A3F08C828D838EF0EF1228D0AC82AD83AEF0FF90002774E8F07403A3F0E4A3F085
:2027AD00A3F08C828D838EF0EF1228D0AC82AD83900045ECF0EDA3F090000C122C32AE8219
:2027CD00AF83E4FDFC74032EFEE43FFFE43DFDE43CFC900014E0F8A3E0F9A3E0FAA3E0FBEB
:2027ED00900027E8F0E9A3F0EAA3F0EBA3F08E828F838DF0EC1228D0AC82900089ECF022EC
:20280D00E58290001CF0E0900088F02222E582900021F0E0FF90001EE0FCA3E0FDA3E0FE0A
:20282D0090001DE0FB7A00C3EB9A403CC003EA2CF8E43DF98E03888289838BF0123793F8E4
:20284D00900011EFF08882C007C006C005C004C003C0021226D1D002D003D004D005D00619
:20286D00D0070A0FD00380BF22E582900026F0E0FF900023E0FCA3E0FDA3E0FE900022E019
:20288D00FB7A00C3EB9A403AC003EA2CF50AE43DF50B8E0C8F82C007C006C005C004C00278
:2028AD0012270DAB82D002D004D005D006D007850A82850B83850CF0EB122AE40A0FD003D4
:0328CD0080C122A5
:0338FB00000000CA
:2028D000AF82AE83ADF0FC90002BEFF0EEA3F0EDA3F0ECA3F090002FE4F0A3F0A3F0A3F087
:2028F000900027E0FCA3E0FDA3E0FEA3E0FF7B20C00390002BE0F8A3E0F9A3E0FAA3E0FB4A
:20291000900033235401F0E828F8E933F9EA33FAEB33FB90002BE8F0E9A3F0EAA3F0EBA315
:20293000F090002FE0F8A3E0F9A3E0FAA3E0FBE828F8E933F9EA33FAEB33FB90002FE8F0A5
:20295000E9A3F0EAA3F0EBA3F0D003900033E0600890002FE043E001F090002FE0F519A30F
:20297000E0F51AA3E0F51BA3E0F51CC3E5199CE51A9DE51B9EE51C9F401F90002FE519C31B
:202990009CF0E51A9DA3F0E51B9EA3F0E51C9FA3F090002BE043E001F01BEB6003022900C5
:1429B00090002BE0FCA3E0FDA3E0FEA3E08C828D838EF0223A
:06207B00E478FFF6D8FD39
:2029C400AFF0AE83E582900034F0EEA3F0EFA3F0900037E4F0A3F0900034E0FDA3E0FEA312
:2029E400E0FF8D828E838FF0123793FCBC20028003BC09120DBD00010E900034EDF0EEA33A
:202A0400F0EFA3F080DC900034EDF0EEA3F0EFA3F08D828E838FF0123793FCE4BC2D0104F7
:202A2400F50DBC2D028003BC2B0E90003474012DF0E43EA3F0EFA3F0900034E0FDA3E0FE7E
:202A4400A3E0FF8D828E838FF0123793FCBC30009200405FEC24C692004058900037E0FBBA
:202A6400A3E0FC90003AEBF0ECA3F090000AC007C006C005122AFFAB82AC83D005D006D0B1
:202A8400078D828E838FF0123793FAA3AD82AE83900034EDF0EEA3F0EFA3F08A017A00E921
:202AA40024D0F9EA34FFFA900037E92BF0EA3CA3F08090900034EDF0EEA3F0EFA3F0E50DE4
:202AC4006011900037E0FEA3E0FFC3E49EFEE49FFF8008900037E0FEA3E0FF8E828F8322A2
:202059007903E94400601B7A019038FB788775A000E493F2A308B8000205A0D9F4DAF27570
:02207900A0FFC6
:1B2AE40020F71130F6138883A88220F509F6A8837583002280FEF280F5F022F1
:202AFF00AA83AB828BF090003AE0A4F8A9F08AF0E0A429F98BF0A3E0A429F5838882222252
:202B1F00AF83E58290003EF0EFA3F090003EE0FEA3E0FF30E709C3E49EFCE49FFD80048E9C
:202B3F00048F0590003CE0FEA3E0FF30E709C3E49EFAE49FFB80048E028F03900040EAF085
:202B5F00EBA3F08C828D83122B87AE82AF8390003EE0A3E030E70CC3E49EFCE49FFD8C8271
:082B7F008D83228E828F8322D8
:202B8700AF83E582900042F0EFA3F0900044E4F0900042E0FEA3E0FF7D00900040E0FBA3AC
:202BA700E0FC2354017036EB2BFBEC33FC900040EBF0ECA3F0900040E0FBA3E0FCC3EE9B48
:202BC700EF9C5011ECC313CB13CBFC900040EBF0ECA3F080080D900044EDF080BD9000441A
:202BE700E0FF900042E0FDA3E0FE900040E0FBA3E0FCC3ED9BEE9C400B900042EDC39BF068
:202C0700EE9CA3F0900040E0FDA3E0C313CD13CDFE900040EDF0EEA3F08F061FEE70C3904C
:0B2C27000042E0FEA3E08E82F5832255
:202C3200AF83E582900047F0EFA3F0900047E0FEA3E0FF30E709C3E49EFCE49FFD80048E76
:202C5200048F05900045E0FEA3E0FF33E433FB6009C3E49EF9E49FFA80048E018F029000F8
:202C720049E9F0EAA3F08C828D83C003122CA4AE82AF83D003900047E0A3E033E4336B605C
:122C92000CC3E49EFCE49FFD8C828D83228E828F8322DF
:202081007800E84400600A790175A000E4F309D8FC7886E84400600C7901900001E4F0A3D6
:0420A100D8FCD9FA94
:202CA400AF83E58290004BF0EFA3F090004DE4F0A3F0900049E0FEA3E0FF7D1090004BE065
:202CC400FBA3E0FC90004F235401F0EB2BFBEC33FC90004BEBF0ECA3F090004DE0FBA3E093
:202CE400FCEB2BFBEC33FC90004DEBF0ECA3F090004FE0600890004DE043E001F090004D9C
:202D0400E0FBA3E0FCC3EB9EEC9F401390004DEBC39EF0EC9FA3F090004BE043E001F0DD48
:0D2D24009B90004BE0FEA3E08E82F5832221
:202D3100C0188581187E008E83122500D01822AFF0AE83E582900051F0EEA3F0EFA3F09021
:202D51000051E0FDA3E0FEA3E0FF900050E0FC900065E4F0A3F0A3F0900068EDF0EEA3F030
:202D7100EFA3F090006BECF0902D31022E83C018E581F51824FBFF900065E4F0A3F0A3F0F0
:202D9100E51824FBF8900068E6F008E6A3F008E6A3F090006BEFF0902D31122E83D01822A9
:202DB100E582900061F0E0FF900057E0C0E0A3E0C0E0A3E0C0E0122DCC800D900055E0C011
:202DD100E0A3E0C0E08F822215811581158190005FE02401F0A3E03400F022E582900062E4
:202DF100F0E02430FF24C6500D74072FFF900054E060034307208F82022DB1E582900063D3
:202E1100F0E0FFC4540FF582C007122DECD00753070F8F82022DECE582900064F090005AA1
:202E3100E0FCA3E0FDA3E0FEA3E0FF90005EE0FB900064E0FA7920EB2BF519EF2354014522
:202E510019FBEC2CFCED33FDEE33FEEF33FFC3EB9A4007EBC39AFB43040119E970D99000E7
:202E71005AECF0EDA3F0EEA3F0EFA3F090005EEBF022AF83E58290006CF0EFA3F090006C9A
:202E9100E0FEA3E0FF900055EEF0EFA3F0900065E0FDA3E0FEA3E0FF900057EDF0EEA3F062
:202EB100EFA3F090005FE4F0A3F0900068E0FDA3E0FEA3E0FF8D828E838FF0123793FC904A
:202ED100006874012DF0E43EA3F0EFA3F0EC700302376FBC2502800302376790006EE4F0D1
:202EF10090006FF0900070F0900071F0900072F0900073F0900074F0900075F0900077F02C
:202F1100900078F0A3F090007A14F0A3F0900068E0FDA3E0FEA3E0FF8D828E838FF01237B4
:202F310093FBA3AD82AE83900068EDF0EEA3F0EFA3F090007EEBF0BB25088B82122DB10247
:202F51002EBBBB3000500302301CEB24C6500302301C90007AE0F50EA3E0F50F74FFB50ECB
:202F710063B50F60C005C006C007900078E0FAA3E0FF90003AEAF0EFA3F090000AC005C0BE
:202F910003122AFFAE82AF83D003D0058B057A00ED2EFEEA3FFFEE24D0FEEF34FFFF9000FC
:202FB10078EEF0EFA3F0D007D006D005900078E0F5F0A3E045F06003022F2990006F7401F0
:202FD100F0022F29C005C006C00790003AE50EF0E50FA3F090000AC006C005C003122AFFED
:202FF100AA82AF83D003D005D0067E00EB2AFAEE3FFFEA24D0FAEF34FFFF90007AEAF0EF5F
:20301100A3F0D007D006D005022F2990007EE0FBBB2E2FC005C006C00790007AE0FAA3E076
:20303100FFBAFF05BFFF028009D007D006D005022F29D007D006D00590007AE4F0A3F002A8
:203051002F29BB61004014EB2485400F90007E74DF5BF09000547401F08005900054E4F082
:2030710090007EE0FBBB20028075BB2B028067BB2D028059BB4202806FBB4302807CBB4409
:2030910003023313BB4603023339BB4803022F29BB4903023313BB4A03022F29BB4C0280C8
:2030B10050BB4F03023321BB5003023281BB53028077BB5403022F29BB5503023329BB5892
:2030D10003023331BB5A03022F2902334190006E7401F0022F299000707401F0022F299082
:2030F10000717401F0022F299000737401F0022F299000747401F0022F29900073E0600EB9
:2031110090006BE014F9F090007EE7F0800F90006BE024FEFFF08F0190007EE7F090007EE3
:20313100E0F582122DB102335090006BE024FDFFF08F018705098706098707191990005A62
:20315100EDF0EEA3F0EFA3F08D828E838FF012377B85820E85830F90007AE0FAA3E0FDBAD1
:20317100FF0DBDFF0A90007AE50EF0E50FA3F090006EE0704B900078E0FAA3E0FDC3E50E47
:203191009AE50F9D503A900078EAC3950EF0ED950FA3F0900078E0FAA3E0FD8A068D071A5D
:2031B100BAFF011DEE4F6010758220C005C002122DB1D002D00580E3900078EAF0EDA3F080
:2031D10090007AE0F511A3E0F51290005AE0FAA3E0FDA3E0FF8A828D838FF0123793F51022
:2031F100603CC3E4951174808512F063F08095F0502C151174FFB511021512851082122DA8
:20321100B190005AE0FAA3E0FDA3E0FF0ABA00010D90005AEAF0EDA3F0EFA3F080AC9000D2
:203231006EE07003023350900078E0FEA3E0FFC3E50E9EE50F9F4003023350900078EEC367
:20325100950EF0EF950FA3F0900078E0FEA3E0FF8E028F051EBEFF011FEA4D7003023348F6
:20327100758220C007C006122DB1D006D00780E090006BE024FDFDF08D01871309871409DE
:203291008715191990005AE513F0E514A3F0E515A3F090005CE0FDBD8000400890007E7494
:2032B10043F08020BD6000400890007E7450F08013BD4000400890007E7449F0800690005A
:2032D1007E7458F090007EE0FDF582C005122DB175823A122DB1758230122DB175827812D3
:2032F1002DB1D005BD4902800EBD5002800990005BE0F582122E0C90005AE0F582122E0CC1
:20331100803D9000727401F0900077740AF0802F9000777408F08027900077740AF0801F26
:203331009000777410F080179000757401F0800F8B82122DB18008900078EEF0EFA3F090F4
:203351000075E0607190006BE024FCFFF08F01870309870509870609870719191990005A3B
:20337100EBF0EDA3F0EEA3F0EFA3F090005A74F0F07438A3F07480A3F090005AE0F513A365
:20339100E0F514A3E0F51574012513FAE43514FBAF1590005AEAF0EBA3F0EFA3F085138235
:2033B1008514838515F0123793FF7003022EBB8F82122DB180C3900077E0F511E070030297
:2033D1002EBB900073E0604790006BE014F9F087067D007B007A0090005AEEF0EDA3F0EB5F
:2033F100A3F0EAA3F0900072E0600302349690005AE0FAA3E0A3E0A3E07B007D007E009048
:20341100005AEAF0EBA3F0EDA3F0EEA3F08076900074E0602890006BE024FCFEF08E018787
:203431000209870309870509870619191990005AEAF0EBA3F0EDA3F0EEA3F0804890006B6A
:20345100E024FEFEF08E01870509870619EE3395E0FBFA90005AEDF0EEA3F0EBA3F0EAA3C3
:20347100F0900072E0701E90005AE0FAA3E0FBA3E0A3E07D007E0090005AEAF0EBA3F0ED69
:20349100A3F0EEA3F0900072E0603D90005AE0A3E0A3E0A3E030E72B90005AE0FAA3E0FBB1
:2034B100A3E0FDA3E0FEC3E49AFAE49BFBE49DFDE49EFE90005AEAF0EBA3F0EDA3F0EEA3F4
:2034D100F08005900072E4F09000767401F0751684751700E4F50EF50F90005EE4F0851147
:2034F10082122E28900076E0703390005EE0C454F0F51390005EE0C4540F4513F51385167A
:2035110082851783E0FFE5134207851682851783EFF0151674FFB516021517800B90005EAE
:20353100E0851682851783F0050EE4B50E02050F900076E0B40100E433F090005AE0FAA395
:20355100E0FBA3E0FEA3E0FFEA4B4E4F708B900085E516F0E517A3F090007CE50EF0E50F3D
:20357100A3F0900078E0F5F0A3E045F070099000787401F0E4A3F090006FE0FFE0703E90C9
:20359100006EE07038900078E0FDA3E0FE90007CE0FB0B7A00C3EB9DEA9E5019758220C03F
:2035B10007C006C005122DB1D005D006D0071DBDFF011E80D8900078EDF0EEA3F09000723E
:2035D100E0602075822DC007122DB1D007900078E024FFFDA3E034FFFE900078EDF0EEA396
:2035F100F0805690007CE0F5F0A3E045F0604A900070E0602075822BC007122DB1D0079021
:203611000078E024FFFDA3E034FFFE900078EDF0EEA3F08024900071E0601E758220C00726
:20363100122DB1D007900078E024FFFDA3E034FFFE900078EDF0EEA3F090006EE07044906E
:20365100007CE0F516A3E0F517900078E0FAA3E0FBC0078A068B071ABAFF011BC3E5169ECF
:20367100E5179FD007504FEF60047E3080027E208E82C007C003C002122DB1D002D003D046
:203691000780CE900078E0FEA3E0FF90007CE0F516A3E0F517C3E5169EE5179F500F9000F0
:2036B10078EEC39516F0EF9517A3F08011900078E4F0A3F08008900078EAF0EBA3F090008F
:2036D10085E0FEA3E0FF90007CE0F516A3E0F517AA16AD17151674FFB516021517EA4D60BC
:2036F10044900076E0B40100E433F0900076E070130EBE00010F8E828F83E0C4540F9000D5
:203711005EF0800E8E828F83E0FD53050F90005EEDF090005EE0F582C007C006122DECD0BE
:2037310006D00780AB90006EE07003022EBB900078E0FEA3E0FF8E038F051EBEFF011FEBC1
:203751004D7003022EBB758220C007C006122DB1D006D00780E08C82122DB1022EBB900093
:0A3771005FE0FEA3E08E82F58322E4
:0B38F0003C4E4F20464C4F41543E0020
:18377B00AA82AB831237936003A380F8C3E5829AF582E5839BF58322AA
:0D204C007581201237AFE582600302204944
:1C37930020F71430F6148883A88220F507E6A88375830022E280F7E49322E02245
:0437AF0075820022FD
:00000001FF
